:03000000020100FA
:03000B0002014EA1
:030013000201EBFC
:03001B0002015F80
:10010000120453C2B175B000C2D1757B0C757A0070
:10011000757C00757DC8C201C200C202C203C20460
:10012000C205759000C2877581509001E1758911F3
:10013000758B8F758DFDD280D28ED2ABD28AD2AA2A
:10014000D2BAD2AF7A007B007D007E0080FEBC0078
:1001500006D280C28C215E1C758AEC758CFF3275CC
:100160008B8F758DFD0BEBB57D317B00BA0004C222
:10017000D5217ABA1F04D2D5217A20D50F0A0EBA1A
:100180001F02D2B1BE0A1E7E000D21A51A1EBA00A2
:1001900002D2B1BEFF0F7E091D21A520B10221A50B
:1001A000BB3202C2B11202021201B29001E112018D
:1001B000C932BA0003C28C22758AEC758CFF8AF0B2
:1001C000ACF0D28CD2A9C28022308E1420D109C2C8
:1001D00086EE93F590B2D122D286ED93F590B2D10E
:1001E00022FC60DAF266B6BEE0FEF61201F920816A
:1001F00007B28E759000D28032783479FFD9FED85C
:10020000FA2212042B605D20015F300053C375A0F9
:10021000FE120434757A00703675A0FD1204347530
:100220007A01702B75A0FB120434757A0270207568
:10023000A0F7120434757A0370154164E57A257BC2
:10024000757B0CF57C257C90026A73C20141643396
:04025000400A157BD0
:10025400157B157B157B414FD2014169D200416961
:100264002001D5C20022418A41B541E06105612ADD
:10027400614F6174619961BE61E38108810C8110F1
:1002840081148118811C7B007E003002087A0A7D6B
:1002940001C202414B3003087A147D02C203414B70
:1002A4003004087A1E7D03C204414B7A007D00416C
:1002B4004B7B007E013002087A0B7D01C202414B68
:1002C4003003087A157D02C203414B3004087A1FBB
:1002D4007D03C204414B7A017D00414B7B007E02C9
:1002E4003002087A0C7D01C202414B3003087A16B1
:1002F4007D02C203414B300402C2047A027D0041F4
:100304004B7B007E033002087A0D7D01C202414B13
:100314003003087A177D02C203414B300402C20441
:100324007A037D00414B7B007E043002087A0E7D07
:1003340001C202414B3003087A187D02C203414BCB
:10034400300402C2047A047D00414B7B007E0530F8
:1003540002087A0F7D01C202414B3003087A197DED
:1003640002C203414B300402C2047A057D00414BB2
:100374007B007E063002087A107D01C202414B30B8
:1003840003087A1A7D02C203414B300402C2047A84
:010394000662
:100395007D00414B7B007E073002087A117D01C24A
:1003A50002414B3003087A1B7D02C203414B3004E6
:1003B50002C2047A077D00414B7B007E08300208AB
:1003C5007A127D01C202414B3003087A1C7D02C2BC
:1003D50003414B300402C2047A087D00414B7B0087
:1003E5007E093002087A137D01C202414B300308B1
:1003F5007A1D7D02C203414B300402C2047A097D95
:1004050000414BD202414BD203414BD204414BD266
:10041500D5414BC2D5414BB205200505757DC84177
:100425004B757D3C414B75A0F0E5A0440FF422E5EA
:05043500A0440FF422B9
:10043A0053D9BF75D90022758911758E022275E2CA
:10044A00402275E41075A80E2212043A12044112D1
:06045A00044812044C22CC
:00000001FF
